:100000000C9436010C9455010C9455010C94550137
:100010000C9455010C9455010C9455010C94550108
:100020000C9455010C9455010C9455010C945501F8
:100030000C9455010C941D030C9455010C9455011E
:100040000C9455010C9455010C9455010C945501D8
:100050000C9455010C9455010C9455010C945501C8
:100060000C9455010C9455010C9455010C945501B8
:100070000C9455010C9455010C9455010C945501A8
:100080000C9455010C9455010C945501000000008E
:100090000000005F00000007000700147F147F14B9
:1000A000242A7F2A122313086462364955225000FD
:1000B00005030000001C2241000041221C0014081E
:1000C0003E081408083E08080050300000080808E0
:1000D0000808006060000020100804023E514945F5
:1000E0003E00427F400042615149462141454B312B
:1000F0001814127F1027454545393C4A49493001BB
:10010000710905033649494936064949291E003611
:100110003600000056360000081422410014141462
:100120001414004122140802015109063249794190
:100130003E7E1111117E7F494949363E414141229F
:100140007F4141221C7F494949417F090909013EFC
:100150004149497A7F0808087F00417F41002040DB
:10016000413F017F081422417F404040407F020C04
:10017000027F7F0408107F3E4141413E7F0909090B
:10018000063E4151215E7F091929464649494931B8
:1001900001017F01013F4040403F1F2040201F3FA1
:1001A0004038403F63140814630708700807615122
:1001B000494543007F4141000204081020004141AD
:1001C0007F0004020102044040404040000102045C
:1001D0000020545454787F484444383844444420E0
:1001E000384444487F3854545418087E0901020C9E
:1001F0005252523E7F0804047800447D4000204063
:10020000443D007F1028440000417F40007C0418DA
:1002100004787C0804047838444444387C1414146A
:1002200008081414187C7C0804040848545454200A
:10023000043F4440203C4040207C1C2040201C3C8B
:100240004030403C44281028440C5050503C4464FA
:10025000544C44000836410000007F000000413645
:1002600008001008081008000000000011241FBE3C
:10027000CFEFD0E4DEBFCDBF11E0A0E0B1E0E2E01F
:10028000F0E100E00BBF02C007900D92A437B10768
:10029000D9F723E0A4E7B1E001C01D92A439B20769
:1002A000E1F70E94B0060C94FF070C940000299817
:1002B000662311F02B9A15C02B9813C0AC01022EA7
:1002C00002C0559547950A94E2F740FF02C02C9A68
:1002D00001C02C982D9A2D982150310978F7299A30
:1002E000089527E030E090E0E9CF60E00E945701F8
:1002F0000895CF93DF93219A229A239A249A259ADC
:100300002A9A299A83EC99E00197F1F700C000003E
:100310002A988BE594E40197F1F700C000002A9A2F
:10032000299881E20E94750183E10E94750186E0AF
:100330000E94750182EC0E94750180E20E947501A5
:1003400089E00E94750180E80E94750180E40E94A6
:100350007501C8EFD1E061E080E00E94570121976C
:10036000D1F788E00E9475018CE00E947501DF9151
:10037000CF91089580E80E94750180E40E94750184
:1003800010926C0310926D03E4E7F1E08CE693E0C9
:100390001192E817F907E1F70895811102C084E28C
:1003A00001C080E20E9475010895262F26952695AA
:1003B000269590E034E5239F800D911D1124442360
:1003C00079F0FC01EC58FE4F677081E090E002C0CC
:1003D000880F991F6A95E2F79081892B8083089591
:1003E000FC01EC58FE4F677081E090E002C0880F7E
:1003F000991F6A95E2F780959081892380830895FB
:100400005F926F927F928F929F92AF92BF92CF92A4
:10041000DF92EF92FF920F931F93CF93DF93562EAD
:10042000262F30E04901880C991C880C991C820EFB
:10043000931E181419040CF05DC08901000F111FE0
:10044000000F111F000F111F021B130B612C082E30
:10045000000C990B80975C01AA0CBB1CAA0CBB1C5E
:10046000A80EB91E0F2EFDE6CF2EF3E0DF2EF02DE5
:100470000F2EFCE6EF2EF3E0FF2EF02D2DC0FE0137
:10048000249130E0872D652D0E94D90602C0359554
:1004900027958A95E2F720FF0AC0F6016081670D73
:1004A000F701808141E0860D0E94D50109C0F60167
:1004B0006081670DF701808140E0860D0E94D501C3
:1004C0007394872D90E080179107CCF26394862D6A
:1004D00090E08815990574F410161106BCF7862D66
:1004E000652D0E94D906E501C80FD11DC457DF4F05
:1004F000712CC5CF80916C0391E0980F852D880FEA
:10050000880F850D890F843518F480936C030EC015
:1005100010926C03EDE6F3E0808191E0980F852D59
:10052000880F880F880F8519890F808380916D034C
:10053000803320F010926C0310926D03DF91CF9105
:100540001F910F91FF90EF90DF90CF90BF90AF90F1
:100550009F908F907F906F905F9008951F93CF939F
:10056000DF93EC018881882341F0162F2196612FBB
:100570000E94000289918111FACFDF91CF911F91E2
:10058000089580936C0360936D0308950F931F93F8
:10059000CF93DF9380E80E94750180E40E9475018B
:1005A000C4E7D1E00CE613E061E089910E945701B5
:1005B000C017D107C9F7DF91CF911F910F9108950F
:1005C000CF93C82F8A3019F48DE00E94E002E0EC4E
:1005D000F0E0808185FFFDCFC093C60080E090E011
:1005E000CF9108958BE0809381008DE790E0909308
:1005F00089008093880082E080936F0010928500CC
:10060000109284008091140190911501A09116011F
:10061000B09117018093700390937103A0937203BC
:10062000B09373038FB780688FBF089510928100D5
:10063000089581E08093740308951F920F920FB67E
:100640000F9211248F939F93AF93BF938091700368
:1006500090917103A0917203B09173030197A10966
:10066000B1098093700390937103A0937203B093C8
:100670007303892B8A2B8B2B99F481E0809374036D
:100680008091140190911501A0911601B09117016C
:100690008093700390937103A0937203B0937303DC
:1006A000BF91AF919F918F910F900FBE0F901F90B0
:1006B000189560931401709315018093160190931F
:1006C000170160937003709371038093720390938A
:1006D000730308950F931F93CF93DF93B62FA72F24
:1006E000F82FE92F022F132FD42FC52F04C0062F68
:1006F000172FD82FC92F6B2F7A2F8F2F9E2F202F98
:10070000312F4D2F5C2F0E94F906B02FA12FFD2F06
:10071000EC2F611571058105910549F7602F712F47
:100720008D2F9C2FDF91CF911F910F91089511B8BC
:1007300087E880937A0080E480937C000895877036
:10074000806480937C00EAE7F0E0808180648083AD
:10075000808184FFFDCFEAE7F0E0808180618083C3
:1007600089EF90E00197F1F700C0000080917800D8
:1007700090917900089580B1881F8827881F90E0A4
:1007800090938B0380938A0380B186FB882780F93E
:10079000809392031092930381E00E949F039093B1
:1007A00087038093860380E00E949F0390937603E3
:1007B0008093750380917D0390917E038230910533
:1007C00009F499C028F4009769F00197C1F080C13D
:1007D0008430910509F430C108F4D5C0059709F4B7
:1007E00051C176C181E090E090937E0380937D03B8
:1007F0000E94BA01109281031092800369C1809116
:10080000920390919303892B11F58AE090E09093E5
:1008100005018093040181E090E0909303018093AF
:100820000201109281031092800310926F031092C4
:100830006E0381E490E09093010180930001809128
:100840008A0390918B03892B09F04EC013C08091CD
:100850008A0390918B03892B09F046C08091040193
:10086000909105018431910591F08E319105E1F06F
:100870000A9739F584E190E0909305018093040193
:1008800083E090E0909383038093820326C085E009
:1008900090E0909383038093820384E690E09093AA
:1008A00001018093000119C084E190E0909305015B
:1008B0008093040187E090E0909383038093820308
:1008C0000CC084E190E0909305018093040185E0E1
:1008D00090E0909383038093820382E090E0909372
:1008E0007E0380937D0362C181E090E090937E035C
:1008F00080937D0305C18091920390919303892B8E
:10090000D9F48AE090E0909305018093040181E09E
:1009100090E0909303018093020110928103109262
:10092000800310926F0310926E0381E490E0909325
:1009300001018093000106C08091800390918103A2
:10094000409738F482E090E090937E0380937D039B
:100950002DC110928103109280030E947A076BE5EB
:1009600070E00E94E50690938503809384034AE03B
:1009700068E773E00E94890783E090E090937E032C
:1009800080937D0330C18091920390919303892BD2
:1009900009F0D8C110927E0310927D038AE090E0A6
:1009A000909305018093040181E090E0909303010E
:1009B00080930201109281031092800310926F03C2
:1009C00010926E0381E490E0909301018093000106
:1009D000089580916E0390916F03892B11F110920D
:1009E000810310928003809102019091030101968E
:1009F000909303018093020120918203309183033D
:100A00002817390738F484E090E090937E038093B0
:100A10007D0334C182E090E090937E0380937D0358
:100A2000C5C0109281031092800385E090E09093FE
:100A30007E0380937D0354C1809192039091930330
:100A4000892B09F01BC110927E0310927D038AE06E
:100A500090E0909305018093040181E090E09093F1
:100A600003018093020181E490E09093010180935F
:100A70000001109281031092800310926F03109274
:100A80006E0308958091920390919303892B09F04E
:100A900027C110927E0310927D038AE090E090932C
:100AA00005018093040181E090E09093030180931D
:100AB000020181E490E09093010180930001109283
:100AC00081031092800310926F0310926E030895B9
:100AD00080917D0390917E038330910509F483C05A
:100AE00038F48130910561F0029709F038C15EC099
:100AF0008430910509F4C2C0059709F4F1C0089546
:100B00008091860390918703883C910568F48091D9
:100B10000401909105018E319105A8F40A969093F5
:100B20000501809304010FC08132934060F08091F1
:100B30000401909105018B30910528F00A9790935C
:100B40000501809304010E94BA0160E080E00E94E8
:100B5000C10261E08CE191E00E94AE026AE080E0B7
:100B60000E94C10261E088E291E00E94AE0264E16D
:100B700080E00E94C10261E08DE291E00E94AE023D
:100B80006EE180E00E94C10261E084E391E00E9496
:100B9000AE026091040183E20E94C10261E089E338
:100BA00091E00E94AE020E94C602089580918003E7
:100BB00090918103019690938103809380030E941A
:100BC000BA0164E180E00E94C10262E08DE391E03D
:100BD0000E94AE028091020162E0805D0E940002EC
:100BE0000E94C6020895809180039091810301962E
:100BF000909381038093800380918203909183037B
:100C000001962091020130910301821B930B909376
:100C10008903809388034AE06DE873E00E948907A6
:100C20000E94BA0160E080E00E94C10261E085E4B8
:100C300091E00E94AE0261E08DE893E00E94AE0276
:100C400064E180E00E94C10261E083E591E00E94DE
:100C5000AE0261E088E793E00E94AE020E94C60205
:100C600080918A0390918B03892B09F078C081E0F1
:100C700090E090936F0380936E03089580918603B4
:100C800090918703883C910568F4809104019091CC
:100C900005018E319105A8F4029690930501809389
:100CA00004010FC08132934060F080910401909163
:100CB00005018B30910528F00297909305018093F0
:100CC00004010E94BA01609104018FE00E94C102F8
:100CD00061E08BE591E00E94AE020E94C602089599
:100CE0008091860390918703883C910568F48091F8
:100CF0000401909105018E319105A8F4029690931C
:100D00000501809304010FC08132934060F080910F
:100D10000401909105018B30910528F00297909382
:100D20000501809304010E94BA01609104018FE0E3
:100D30000E94C10261E087E691E00E94AE020E943B
:100D4000C6020895209180033091810380910001B3
:100D5000909101012817390708F03BCE44CF089540
:100D600011B88FEF80B984B915B817B886B91AB819
:100D700089B90E9497030E94790164E670E080E0DF
:100D800090E00E9459030E94F20280B180938C038C
:100D900086B180937F0389B1809377030E94BB0360
:100DA000809174038823E1F310927403EECF805D89
:100DB0000895991B79E004C0991F961708F0961BB7
:100DC000881F7A95C9F78095089597FB072E16F42A
:100DD000009407D077FD09D00E941B0707FC05D0BF
:100DE0003EF4909581959F4F0895709561957F4F42
:100DF0000895A1E21A2EAA1BBB1BFD010DC0AA1F5C
:100E0000BB1FEE1FFF1FA217B307E407F50720F073
:100E1000A21BB30BE40BF50B661F771F881F991FEE
:100E20001A9469F760957095809590959B01AC0137
:100E3000BD01CF010895AA1BBB1B51E107C0AA1F2A
:100E4000BB1FA617B70710F0A61BB70B881F991F6B
:100E50005A95A9F780959095BC01CD0108958F9280
:100E60009F92AF92BF92CF92DF92EF92FF92CF9379
:100E7000DF93EC01688179818A819B81611571051D
:100E80008105910521F464E279ED8BE597E02DE190
:100E900033EF41E050E00E94BE0749015A019B0137
:100EA000AC01A7EAB1E40E94DD076B017C01ACEE66
:100EB000B4EFA50194010E94EB07DC01CB018C0D7E
:100EC0009D1DAE1DBF1DB7FF03C00197A109B0480E
:100ED00088839983AA83BB839F77DF91CF91FF900B
:100EE000EF90DF90CF90BF90AF909F908F9008953C
:100EF0000C942F0788E191E00C942F07A0E0B0E05C
:100F00008093180190931901A0931A01B0931B01CB
:100F10000895BB274A3031F4992322F4BDE290951D
:100F200081959F4F0C949507BB27FB015527AA2756
:100F3000880F991FAA1FA41710F0A41B8395505166
:100F4000B9F7A05DAA3308F0A95DA193009779F7DE
:100F5000B111B1931192CB010C94AE07DC01FC01ED
:100F6000672F71917723E1F7329704C07C916D93DD
:100F700070836291AE17BF07C8F30895052E97FBE3
:100F80001EF400940E94D50757FD07D00E94F90671
:100F900007FC03D04EF40C94D5075095409530953E
:100FA00021953F4F4F4F5F4F0895909580957095D5
:100FB00061957F4F8F4F9F4F08950E94F007A59F27
:100FC000900DB49F900DA49F800D911D1124089544
:100FD000B7FF0C94DD070E94DD07821B930B089579
:100FE000A29FB001B39FC001A39F700D811D11246A
:100FF000911DB29F700D811D1124911D0895F894CB
:02100000FFCF20
:10100200410001000A000000000200000000E002AE
:10101200000000000100000001000000414E474CAA
:10102200452047414D45210045617379004D656476
:1010320069756D0048617264003C2D2D00524F5558
:101042004E443A2000526F756E6473204C6566748C
:101052003A2000416E676C65203A00594F5520577F
:10106200494E2121212100596F75206C6F73742024
:041072003A28000018
:00000001FF
